:020000040800F2
:10000000B82B00209D010008BF320008A928000875
:10001000BD320008850B0008C13E0008000000004A
:10002000000000000000000000000000C3320008D3
:10003000E50F000800000000C13200087538000814
:10004000B7010008B7010008B7010008B7010008B0
:10005000B7010008B7010008B7010008B7010008A0
:10006000B7010008B7010008B7010008B701000890
:10007000B7010008B7010008B7010008B701000880
:10008000B7010008B7010008B7010008B701000870
:10009000B7010008B7010008B7010008B701000860
:1000A000B7010008B7010008B7010008B701000850
:1000B000B7010008B7010008B7010008B701000840
:1000C000B7010008B7010008B7010008B701000830
:1000D000B70100089D3E0008A93E0008B53E000893
:1000E000B7010008B7010008B7010008B701000810
:1000F000B7010008B7010008B7010008B701000800
:10010000B7010008B701000819390008B701000855
:10011000DD3B0008B7010008B7010008B70100087F
:10012000B7010008B7010008B7010008B7010008CF
:10013000B7010008B7010008B7010008B7010008BF
:10014000B7010008B7010008B7010008B7010008AF
:10015000B7010008B7010008B7010008B70100089F
:10016000B7010008B7010008B7010008B70100088F
:10017000B7010008B7010008B7010008000000003F
:10018000B7010008B7010008DFF80CD000F038FC18
:1001900000480047E14E0008B82B00200648804781
:1001A00006480047FEE7FEE7FEE7FEE7FEE7FEE75C
:1001B000FEE7FEE7FEE7FEE7FD38000889010008DC
:1001C0002DE9F05F0546002092469B46884606468C
:1001D000814640241BE0284641464746224600F01F
:1001E00095FA53465A46C01A914110D31146184603
:1001F000224600F07CFA2D1A67EB01084F46224692
:100200000120002100F073FA17EB00094E41201E77
:10021000A4F10104DFDC484631462A464346BDE8E6
:10022000F09F40EA01039B0703D009E008C9121FB1
:1002300008C0042AFAD203E011F8013B00F8013BA0
:10024000521EF9D27047D2B201E000F8012B491ECC
:10025000FBD270470022F6E710B513460A46044663
:100260001946FFF7F0FF204610BD30B505462A4677
:100270000B4612F8010B13F8014B08B1A042F8D05D
:100280001CB1002802D06D1CF1E7284630BD70B5C6
:10029000064603F065FE046805460A220021304642
:1002A00000F056FA2C6070BD2DE9FE4F804681EAC1
:1002B0000300C00F0C46009021F0004123F00045E0
:1002C000B8EB0200A94105D24046214690461C46A3
:1002D0000B46024623F00040104347D0270DC7F3DA
:1002E0000A00C3F30A510290401A019040286BDAC9
:1002F000C3F3130040F4801B0098924620B1002302
:10030000D2EB030A63EB0B0B01985946C0F1400294
:10031000504600F0ECF906460D4650465946019A03
:1003200000F004FA10EB08006141002487EA115242
:1003300084EAE7731A4340D0009A62B3019A012A13
:100340004FEA075215DC001B61EB02014FF000423F
:1003500002EA0752CDE90042001C41F58011324605
:100360002B4600F073FA03B0BDE8F08F40462146FB
:10037000F9E7001B61EB0201001C41F58013001836
:100380005B412018A2F5001747EB030140EAD57046
:10039000B6196D4111E06D084FEA360645EAC075A1
:1003A0004FEA0752001B61EB0201001C41F580116E
:1003B00049084FEA30000019514132462B4603B03C
:1003C000BDE8F04F00F033BA00980122400000234E
:1003D000D0EB020263EBE073009821464FEAE07431
:1003E000B8EB000061EB0401E9E783F000435BE751
:1003F00081F0004158E72DE9FE4F81EA030404F043
:10040000004421F0004100944FF0000B23F0004322
:1004100050EA01045ED052EA03045BD0C3F30A54ED
:10042000C1F30A552C44A4F2F3340194A0FB025406
:10043000C1F3130141F48011C3F3130343F4801398
:1004400001FB024400FB034E840A970A44EA8154EC
:1004500047EA8357A4FB076802958D0A05FB0785C9
:100460004FEA932C04FB0C542705029D4FEA0658D3
:1004700047EA1637B5EB08056EEB070C870E920EB0
:1004800047EA811742EA8312A7FB0201B6EB0B0190
:1004900064EB00042B0D43EA0C335E1844EB1C5054
:1004A000DA465146E7FB0201C5F313044FEA0B336A
:1004B00043EA14534FEA0432019C43EA0603A4F1D1
:1004C0000C040294009CCDE900B400F0BFF903B025
:1004D000BDE8F08F00200146F9E72DE9F04D81EAF3
:1004E000030404F0004B21F0004514464FF0000ACD
:1004F00023F0004150EA050220D054EA01021DD049
:10050000C5F30A570246C5F31303C1F31300C1F341
:100510000A5640F4801543F48013A7EB0608101B1D
:10052000D64608F2FD3873EB050002D308F1010846
:1005300001E092185B41B8F1000F03DA0020014698
:10054000BDE8F08D00204FF48011064684460EE091
:10055000171B73EB050705D3121B63EB050306435B
:100560004CEA010C49084FEA300092185B4150EA0E
:100570000107EDD152EA030012D082EA040083EAB7
:100580000501084305D0101BAB4106D20122002310
:1005900006E000224FF0004302E06FF0010253102A
:1005A0001AEB06004CEB085110EB0A0041EB0B0173
:1005B000BDE8F04D00F03BB90EB5C10F80EAE07028
:1005C0000844CA07002140F233438DE80E000A4672
:1005D0000B4600F03BF903B000BD0EB540F23341CD
:1005E00002910021CDE900110A460B4600F02EF9D8
:1005F00003B000BD70B5C1F30A5201F000450024FC
:10060000C1F3130140F2FF3341F480119A4201DA41
:10061000002070BD40F233439A42A2F2334203DC21
:10062000524200F073F800E090402C43F1D0404279
:1006300070BDC1F30A5210B5C1F3130140F2FF338C
:1006400041F480119A4201DA002010BD40F2334398
:100650009A42A2F2334203DC524200F057F810BD36
:10066000904010BD00F0004230F000400AD0C10DB3
:1006700001F56071C0F3160042EA0151C20840075B
:100680001143704700200146704701F0004330B429
:1006900021F0004150EA010206D00A0DA2F5607275
:1006A000C1F31301002A02DC30BC00207047440F64
:1006B00044EAC104C100E01830BC00EBC25000F0B5
:1006C0007FB830B50B46014600202022012409E006
:1006D00021FA02F59D4205D303FA02F5491B04FAFB
:1006E00002F52844151EA2F10102F1DC30BD202ADA
:1006F00004DB203A00FA02F1002070479140C2F179
:10070000200320FA03F3194390407047202A04DBAA
:10071000203A21FA02F00021704721FA02F3D0407A
:10072000C2F120029140084319467047202A06DB97
:10073000CB17203A41FA02F043EAE07306E041FAAF
:1007400002F3D040C2F1200291400843194670479D
:100750002DE9F04791460F4680460446002614F8DE
:10076000015B2DB100F05EF90068405DC007F6D175
:100770002B2D02D02D2D18D0641E4A463946204616
:1007800000F054F927B13968A14201D1C7F80080BF
:1007900071054FF002040BD54042002803DD03F041
:1007A000DFFB0460A007BDE8F08746F48066E4E75D
:1007B0000028F8DA03F0D4FB04606FF00040F2E7A1
:1007C0000029A8BF7047401C490008BF20F0010065
:1007D000704710B4B0FA80FC00FA0CF050EA010443
:1007E00004BF10BC704749B1CCF1200421FA04F4D5
:1007F00011FA0CF118BF012121430843A3EB0C01AE
:10080000CB1D4FEA00614FEA102042BF002010BC10
:10081000704700EBC35010440029A4BF10BC7047C0
:10082000401C490008BF20F0010010BC704710B503
:10083000141E73F1000408DA401C41F10001921803
:100840005B411A4301D120F0010010BD2DE9F04DAC
:1008500092469B4611B1B1FA81F202E0B0FA80F201
:1008600020329046FFF743FF04460F4640EA0A0055
:1008700041EA0B0153465A46084313D0114653EA46
:10088000010019D0C8F140025046FFF73FFF05466E
:100890000E46504659464246FFF729FF084305D009
:1008A000012004E020463946BDE8F08D00200543D4
:1008B00046EAE0762C4337430A986305E40AA0EB46
:1008C00008000022FD0A44EA47540A3002D50020FD
:1008D0000146E9E7010510196941DDE908450019FC
:1008E0006941BDE8F04DA2E72DE9F041054621F050
:1008F00000400C46284309D0C4F30A5040F233416B
:10090000884205DD28462146BDE8F0812846FBE700
:1009100040F2FE31884210DC0CDB4FEA043040EA42
:10092000155050EA053105D0104804F0004101434C
:100930000020E9E700200146E6E7A0F23340464206
:10094000C6F1400228462146FFF7D1FE07468846F9
:10095000284621463246FFF7D9FE43463A46FFF77E
:1009600066FF3246BDE8F041FFF7C1BE0000F03F30
:10097000C1F30A52C1F3130140F2FF3341F4801175
:100980009A4202DA00200146704740F233439A420D
:10099000A2F2334202DC5242FFF7B8BEFFF7A7BE15
:1009A00030B5041E71F1000404DB4FF000444042F6
:1009B00064EB0101141E73F1000405DB1C464FF0CB
:1009C0000043524263EB04038B4208BF824230BDB6
:1009D00030B5041E71F1000404DB4FF000444042C6
:1009E00064EB0101141E73F1000405DB1C464FF09B
:1009F0000043524263EB0403994208BF904230BD6A
:100A0000064C074D06E0E06840F0010394E807005B
:100A100098471034AC42F6D3FFF7BAFBF8560008FB
:100A20001857000800487047F45600082DE9F05F99
:100A300082460078002715468B460AF10104B94624
:100A4000302801D09DB113E014F8010B012778285C
:100A500003D0582801D045B10AE00DB1102D07D1BF
:100A60000027102514F8010B02E0082500E00A25F4
:100A70000026B0460EE005FB080005FB06F1012745
:100A800001EB10461FFA80F8B6F5803F00D3B94657
:100A900014F8010B294600F018F80028EBDABBF136
:100AA000000F05D00FB1641E00E05446CBF80040A3
:100AB000B9F1000F06D003F053FA02210160C81EFD
:100AC000BDE8F09F48EA0640FAE73A2800D23038FD
:100AD00020F02002412A01D3A2F13700884201D33D
:100AE0004FF0FF30704770B58C1810F8015B15F0AF
:100AF000070301D110F8013B2A1106D110F8012B90
:100B000003E010F8016B01F8016B5B1EF9D12B07B4
:100B100005D40023521E0DD401F8013BFAE710F86A
:100B2000013BCB1A921C03E013F8015B01F8015B57
:100B3000521EF9D5A142D8D3002070BD10B5104C7B
:100B400001224021204600F08BFBC82000F09AFAD9
:100B500000224021204600F083FBC82000F092FADA
:100B600001224021204600F07BFBC82000F08AFAD9
:100B700020460022BDE81040402100F071BB00007B
:100B800000100240FEE700002DE9F041214C027800
:100B90001F49207800250A54401CC0B220700A78F2
:100BA000572A31D10A1812F8012C582A2DD11A4B84
:100BB00001221A604B780222462B13D04D2B23D1F1
:100BC0006270164B401E05E08E5C9F18521C07F8A1
:100BD000026C6270D2B28242F6DB1048FFF757FB1C
:100BE0000F4910E062700F4B401E05E08E5C9F18AD
:100BF000521C07F8026C6270D2B28242F6DB0948DE
:100C0000FFF745FB084908602570BDE8F08100004A
:100C1000B8020020700000201400002025000020F1
:100C2000180000202A0000201000002010B59EB0FF
:100C3000262217490DA8FFF7F4FA154CE08CADF801
:100C40005A00A06A1790A08DADF86000E08DADF855
:100C50006200092204F1300119A8FFF7E2FA94F8C2
:100C600039008DF86D0094F83A008DF86E00E06B55
:100C70001C9008A00C90302211A96846FFF7D1FA09
:100C80000DAC94E80F0004F09DFC1EB010BD0000F8
:100C9000A40400205743580A0000000010B59EB07D
:100CA000262217490DA8FFF7BCFA154CE08CADF8C9
:100CB0005A00A06A1790A08DADF86000E08DADF8E5
:100CC0006200092204F1300119A8FFF7AAFA94F88A
:100CD00039008DF86D0094F83A008DF86E00E06BE5
:100CE0001C9008A00C90302211A96846FFF799FAD1
:100CF0000DAC94E80F0004F065FC1EB010BD0000C0
:100D0000A40400205746580A0000000010B59EB009
:100D1000262217490DA8FFF784FA154CE08CADF890
:100D20005A00A06A1790A08DADF86000E08DADF874
:100D30006200092204F1300119A8FFF772FA94F851
:100D400039008DF86D0094F83A008DF86E00E06B74
:100D50001C9008A00C90302211A96846FFF761FA98
:100D60000DAC94E80F0004F02DFC1EB010BD000087
:100D7000A4040020574E580A0000000070B5A0B02F
:100D800010EE100AFFF76EFC0E46054626221849A3
:100D900010A8FFF746FA164CE08CADF86600A06A82
:100DA0001A90A08DADF86C00E08DADF86E000922B0
:100DB00004F130011CA8FFF734FA94F839008DF8DB
:100DC000790094F83A008DF87A00E06B1F9009A042
:100DD000CDE90E560C90302214A96846FFF721FA8F
:100DE00010AC94E80F0004F0EDFB20B070BD0000E3
:100DF000A40400205754252E3166580A0000000034
:100E000070B51F4801F098FF1D481F4D90ED000A76
:100E10001C4880ED000A298800EE101A1B49B8EE24
:100E2000400A80ED010A04F0F7F81848F0EE000AD5
:100E300090ED000A30EE600A03F0ECFF144C154808
:100E400084ED000A007800EE900AF8EE600AB4EE35
:100E5000E00AF1EE10FA02DD08B1FFF76FFE01F0D3
:100E60000BFF0D4800F0C0F894ED000A002002F0DE
:100E700071FB2988BDE87040062002F035BC0000F7
:100E80002000002038000020340000204000002016
:100E900030000020240000200000002010B501F0E8
:100EA000EBFE174800F0A0F8164801F045FF154882
:100EB000164990ED000A144880ED000A098800EEFA
:100EC000101A1349B8EE400A80ED010A04F0A4F8A4
:100ED00010480F4C0078D4ED000A00EE100AB8EE6E
:100EE000400AF4EEC00AF1EE10FA02DD08B1FFF795
:100EF00025FE94ED000ABDE81040002002F02ABB58
:100F000000000020200000203800002034000020D5
:100F10004000002024000020194810B50168062078
:100F200002F0E2FB17480168012903D100210160AA
:100F3000FFF77CFE144801F0FFFE1348144990EDC2
:100F4000000A124880ED000A098800EE101A1149C3
:100F5000B8EE400A80ED010A04F05EF80D4890ED0D
:100F6000000A03F057FF0C4C0C4884ED000A00F017
:100F70003BF894ED000ABDE81040FFF7FFBE00000B
:100F8000100000201C00002020000020380000205D
:100F9000340000204000002030000020000000202D
:100FA00010B5FFF72DFF0B4890ED000AFFF7E6FEA6
:100FB000094C2088012805D0BDE8104007A1082071
:100FC00002F002BA06A1082002F0FEF900202080FB
:100FD00010BD00003000002018000020B7F1000014
:100FE000CAC700007047704738B50546007800242E
:100FF000012826D113A11448FFF737F96A4606E005
:10100000A1F13003092B01D81155641C401C017853
:101010006D29F5D11046FFF73AF9FFF7CDFA9FEDAC
:101020000B1B53EC112BFFF7E6F99FED0A1B53EC5A
:10103000112BFFF7DAF9FFF7FCFA084908800020C6
:10104000287038BD643A0000CC020020B29DEFA7A2
:10105000C64BEB3F52B81E85EB11204034000020F8
:1010600090F83510022903D0802141650120704796
:10107000052180F835100068016821F00101016048
:101080000020704770B5044600F0F0F80546601C7B
:1010900002D004480078044400F0E8F8401BA04265
:1010A000FAD370BD5C0000202DE9F84F00224FF00C
:1010B000010803254FF00F0E0B6808FA02F42340D5
:1010C000A3426ED14E68012E05D0022E03D0112E00
:1010D00001D0122E12D186684FEA420C05FA0CF7A5
:1010E000BE43CF6807FA0CF7374387604668A643CC
:1010F0000C79C4F30014944034434460C66857002C
:1011000005FA07FC8C6826EA0C06BC403443C46030
:101110004C68022C01D0122C13D1D40800EB8404AB
:10112000A346D4F8209054074FEAD46A0EFA0AF680
:1011300029EA06090E6906FA0AF646EA0906CBF814
:10114000206006680C7926EA0C0604F00304BC4013
:10115000344304604C68E40065D5364C266846F498
:1011600080462660246822F0030604F4804400943C
:10117000314C3444A446D4F808489607370F0EFA89
:1011800007F6B4432D4EB04201D1002624E02C4E88
:10119000B04201D101261FE02A4EB04202D1022600
:1011A0001AE040E0284EB04201D1032614E0274E59
:1011B000B04201D104260FE0254EB04201D10526F0
:1011C0000AE0244EB04201D1062605E0224EB0428C
:1011D00001D1072600E00826BE402643CCF8086867
:1011E0001E4E34684F689C43FF0300D51C43346097
:1011F0001A4C241D26684F689E43BF0300D51E432A
:101200002660164E083634684F689C43FF0200D5AE
:101210001C433460114E0C3634684F689C43BF0247
:1012200000D51C433460521C102AFFF445AFBDE8C2
:10123000F88F0000443802400030014000000240B6
:101240000004024000080240000C0240001002406E
:101250000014024000180240001C0240003C014003
:101260000AB1816170470904FBE70000014880680A
:10127000704700005C00002070B5040025D094F891
:101280003D00002520B984F83C50204600F04CFA7F
:10129000242084F83D002068016821F001010160EC
:1012A0002068016841F4004101602068016821F470
:1012B0000041016000F0BEFB4D4A6168914201D8D7
:1012C0004C4900E04C49884201D2012070BD4B4995
:1012D0002368B0FBF1F15E6826F03F060E435E60C6
:1012E0006368934206D94FF4967359434FF47A7367
:1012F000B1FBF3F12368491C1E6A26F03F06314317
:1013000019626168914210D84900401EB0FBF1F2A9
:10131000521CC2F30B02042A01D2042022E0B0FBCB
:10132000F1F0401CC0F30B001CE0A268F2B301EB2B
:10133000C10303EB0116431EB3FBF6F35B1C43F43E
:1013400080431B0549D092B301EBC10202EB0111AE
:10135000401EB0FBF1F0401CC0F30B0040F4804095
:1013600040F400402168CA694CF6FF739A43104369
:10137000C861D4E9071001432068026822F0C00266
:1013800011430160D4E9030101432068826848F2F7
:10139000FF339A4311438160D4E905010843216872
:1013A000CA6822F0FF021043C86001E00EE016E0B8
:1013B0002068016841F0010101602564202084F863
:1013C0003D00256384F83E50002070BD01EB4106CE
:1013D000431EB3FBF6F35B1CB3E70120C2E701EB4E
:1013E0004101401EB0FBF1F0401CC0F30B00B7E719
:1013F000A086010080841E0000093D0040420F00CD
:101400002DE9FF4F83B09A46DDE9119793460446D4
:10141000DDF84080FFF72AFF054694F83D002028BC
:1014200070D11923012271492046009501F04CFB2F
:101430000028F5D194F83C00012863D0012084F8FD
:101440003C0020680168C90703D1016841F001012F
:1014500001602068016821F400610160222084F8A5
:101460003D00402084F83E0000262664C4F8248015
:10147000A4F82A90608D20855D48E062CDE9007572
:1014800053465A462046049901F026FA00287CD19A
:10149000208DD0B1012821D00228206824D04169B4
:1014A00080690090208D032869D801282BD05149EC
:1014B00002283B464FF00002009559D0884620464E
:1014C00001F002FB002860D13CE02068416981699D
:1014D0000091016841F40071016077E020680168C3
:1014E00021F480610160F0E7016821F4806101600E
:1014F0002068016841F400610160206841698069E9
:10150000009063E06FE02A463946204601F05BFB1D
:1015100098BB20680069616A08704EE02068016825
:1015200041F40071016020680069616A0870606AB6
:10153000401C6062218D491E2185618D491E618597
:10154000216838E02068016821F48061016020682A
:101550000069616A0870606A401C6062208D401EEC
:101560002085608D401E60853B46002241460095E7
:10157000204601F0A9FA00B9D0E706E0FFE72A46C5
:101580003946204601F01FFB18B1012007B0BDE825
:10159000F08F20680069616A0870606A401C6062B0
:1015A000218D491E2185618D491E618521684A6909
:1015B000D24352070AD409690170606A401C606214
:1015C000208D401E2085608D401E6085208D002866
:1015D0007FF468AF202084F83D0084F83E6084F8F2
:1015E0003C600020D2E70220D0E70000020010009B
:1015F0000000FFFF040001002DE9FF4F83B09A4671
:10160000DDE9119793460446DDF84080FFF72EFE92
:10161000054694F83D0020287FD119230122404936
:101620002046009501F050FA002876D194F83C004D
:10163000012872D0012084F83C0020680168C907A5
:1016400003D1016841F0010101602068016821F4C3
:1016500000610160212084F83D00402084F83E00B4
:1016600000262664C4F82480A4F82A90608D208582
:101670002C48E062CDE9007553465A46204604994D
:1016800001F0A8F970B930E02A463946204601F049
:10169000CDFA58B1206C042804D12068016841F4C7
:1016A00000710160012007B0BDE8F08F606A216819
:1016B00000780861606A401C6062218D491E89B211
:1016C0002185628D521E628522685369DB435B0768
:1016D0000BD469B100781061606A401C6062208D93
:1016E000401E2085608D401E6085208D0028CBD156
:1016F0002A463946204601F0C1F90028CAD154F8DB
:101700003D0B016841F400710160202004F81E09BE
:10171000E67766770020C6E7FFE70220C3E7000010
:10172000020010000000FFFFF0B587B0044614214E
:101730006846FEF78FFD2768204CDFF87CC01F4904
:1017400012220123032504261D481034674515D1B4
:101750000F6847F002070F60096801F00201059168
:1017600029028DE86E006946FFF79EFC206840F470
:1017700000102060206800F4001019E0DFF844C079
:10178000674516D10F6847F002070F60096801F03E
:10179000020105914FF440618DE86E006946FFF744
:1017A00083FC206840F480002060206800F4800002
:1017B000059007B0F0BD00000054004030380240F2
:1017C0000004024000580040024881680278114439
:1017D000816070475C0000200B4810B5016841F43F
:1017E00000710160016841F480610160016841F4A9
:1017F00080710160032000F071F8002000F006F80D
:1018000000F024F8002010BD003C024070B50D4DE2
:1018100004464FF47A712878B1FBF0F00A49096860
:10182000B1FBF0F000F004FB48B9102C07D2002205
:101830002146501E00F032F800206C6070BD01207F
:1018400070BD00005C000020680000200B4882B0E2
:10185000016841F480410160006800F4804000901C
:101860000648001F016841F080510160006800F0E7
:1018700080500090052002B000F030B8443802409B
:10188000002809DB00F01F0201219140400980007F
:1018900000F1E020C0F8001170470000F0B40E4BDA
:1018A0001B680C46C3F30223C3F10705042D00D9BE
:1018B0000425191D072901D2002300E0DB1E0126A3
:1018C00006FA05F1491E214099409E40761E1640B9
:1018D0003143F0BC02F034BB0CED00E0064900F0EF
:1018E000070208684FF6FF03184040EA0220034A47
:1018F00010430860704700000CED00E00000FA059E
:101900002DE9F0470E46050065D0DFF81481D8F8C0
:101910000000F7B200F00F00B04207D288F8007064
:10192000D8F8000000F00F00B04254D128683D4CB8
:10193000810712D5400703D5206840F4E0502060AD
:101940002878000703D5206840F4604020602068B4
:10195000A96820F0F000084320602878C0072DD047
:10196000304968680839012812D0022813D00328AA
:1019700011D00968890700292DDA216821F00301B7
:1019800001432160FFF772FC814641F2883A0EE084
:1019900009688903EFE709688901ECE7FFF766FC4E
:1019A000A0EB0901514502D90320BDE8F08720686A
:1019B000696800F00C00B0EB810FEFD1D8F800108F
:1019C000404601F00F01B14207D90770006800F0EE
:1019D0000F00B04201D00120E7E72878400705D585
:1019E0002068E96820F4E050084320602878000768
:1019F00006D52068296920F4604040EAC1002060D3
:101A000000F038F82168084AC1F30311515CC8405E
:101A10000649086006480068FFF7F8FE0020C4E7A2
:101A2000003C024008380240FA55000868000020D7
:101A3000600000200448054900680968044AC1F3B1
:101A40008221515CC840704768000020083802407D
:101A50000A5600080448054900680968044AC1F3A9
:101A60004231515CC840704768000020083802408D
:101A70000A560008154810B5006810F00C0214480A
:101A800013D04110042A0FD0082A0ED10F4C241F66
:101A90002268236802F03F025B0207D52068C0F38A
:101AA0008810A0FB010106E0084610BD2168C1F3C3
:101AB0008811A1FB00010023FEF782FB2168C1F31E
:101AC0000141491C4900B0FBF1F010BD083802404B
:101AD0000024F4002DE9F84F04006ED02078DFF8E0
:101AE0003C93C007A9F104054AD009F1040001683C
:101AF000C1F38101012908D00068C0F381000228E8
:101B00000AD1D9F80000400206D52868800337D5ED
:101B100060680028E1D033E06068B0F5803F10D005
:101B2000B0F5A02F286810D020F4803028602868F5
:101B300020F4802028606068A8B1FFF797FB064674
:101B40000DE0286840F48030F4E740F480202860FD
:101B5000F7E700BFFFF78AFB801B642873D828686B
:101B60008003F7D50CE0FFF781FB064605E000BFD8
:101B7000FFF77CFB801B6428F0D828688003F7D42B
:101B80002078DFF89C8280074FF0000A3ED5A348FA
:101B9000001D016811F00C0F08D00068C0F381002F
:101BA00002280BD1D9F80000400207D4286880072A
:101BB00016D5E068012800D112E02BE1E068B8B149
:101BC0000120C8F80000FFF751FB064605E000BF02
:101BD000FFF74CFB801B0228C0D828688007F7D588
:101BE0002868216920F0F80040EAC10028600DE073
:101BF000C8F800A0FFF73AFB064604E0FFF736FB03
:101C0000801B02281FD828688007F7D42078000797
:101C100022D5824E83486169703671B1012101601D
:101C2000FFF724FB074604E0FFF720FBC01B022858
:101C300009D830688007F7D50EE0C0F800A0FFF79C
:101C400015FB074605E082E0FFF710FBC01B0228EA
:101C50007DD830688007F7D42078400768D5DFF852
:101C6000BCB100270BF13C0BDBF80000C0000BD42B
:101C7000DBF8001041F08051CBF80010DBF80000D9
:101C8000012700F080500090674E3068C00510D4E6
:101C9000306840F480703060FFF7E8FA009005E0AB
:101CA000FFF7E4FA0099401A022850D83068C005BE
:101CB000F6D55A4EA0686C3601280FD0052830683A
:101CC00010D020F001003060306820F00400306057
:101CD000A068B8B1FFF7CAFA00900FE0306840F092
:101CE0000100F4E740F004003060F7E7FFF7BEFAC8
:101CF0000099411A41F28830814266D830688007E5
:101D0000F4D50EE0FFF7B2FA009007E0FFF7AEFA65
:101D10000099411A41F28830814256D830688007D4
:101D2000F4D42FB1DBF8001021F08051CBF8001073
:101D3000A069C8B33949091D0968C1F381010229A5
:101D40004AD00228504607D0C8F8600000E03CE0C6
:101D5000FFF78CFA04463BE04746C8F86000FFF7FF
:101D600085FA064605E000BFFFF780FA801B0228CF
:101D70002BD828688001F7D4D4E907010843A16A69
:101D80002A4A490802EB0141626A41EA821108438A
:101D900094F82C1040EA0161C9F80010012038665F
:101DA000FFF764FA044606E036E000BFFFF75EFA8C
:101DB000001B022809D828688001F7D52CE000BF55
:101DC000FFF754FA001B022802D90320BDE8F88F60
:101DD00028688001F4D41FE00128F7D0D9F800006A
:101DE000E26900F48001914214D1226A00F03F01BF
:101DF00091420FD147F6C071626A0140914209D108
:101E0000A26A00F44031914204D1E16A00F07060AE
:101E1000884201D00120D9E70020D7E704380240EA
:101E200000004742800E4742007000400000FFFF64
:101E300010B5401EB0F1807F01D3012010BD4FF0DE
:101E4000E02460610F21601702F07AF80020A061A1
:101E500007202061002010BD7047704710B590F832
:101E60003C20012A22D0012280F83C20CA688C68DC
:101E700022F4407222434C6822F4806222430C68B0
:101E800022F4006222430C6922F4805222434C69FE
:101E900022F400522243C969002322F480420A43FB
:101EA00001684A6480F83C30002010BD022010BD5B
:101EB00070B590F83C20012A32D0012480F83C40D3
:101EC000022280F83D2003685A689D6822F070065F
:101ED0000A6832435A60134B02689A4214D0B2F136
:101EE000804F11D0104B9A420ED0104B9A420BD01B
:101EF0000F4B9A4208D00F4B9A4205D00E4B9A4294
:101F000002D00E4B9A4204D1496825F08003194350
:101F1000916080F83D40002180F83C10084670BD7B
:101F2000022070BD00000140000400400008004095
:101F3000000C004000040140004001400018004037
:101F400010B5040003D094F83D0010B107E0012063
:101F500010BD002084F83C00204600F00DF802205F
:101F600084F83D00211D206801F0DCFC012084F88C
:101F70003D00002010BD000008B5016813488142F3
:101F800001D1134819E01248001FB1F1804F14D05D
:101F9000104A914219D1016841F0080101600068BE
:101FA000002200F00800009011463220FFF776FC76
:101FB000BDE808403220FFF763BC016841F0010131
:101FC0000160006800F00100009008BD00000140C1
:101FD00044380240000C00400168CA6842F0010227
:101FE000CA600068816801F00701062903D0016812
:101FF00041F0010101600020704770B5044690F87F
:102000003C00012817D0012584F83C50022084F8B8
:102010003D002068826822F0770222F47F428260CD
:102020000868502830D00DDC20284DD005DC98B34E
:1020300010283BD148E0022070BD302844D0402811
:1020400034D139E0602828D0702806D0B0F5805F00
:102050002CD0B0F5005F29D10AE0CB68D1E901218D
:10206000206801F0C3FC2068816841F0770109E035
:10207000CB68D1E90121206801F0B8FC20688168B3
:1020800041F48041816011E0CA684968206801F02C
:1020900081FD5021206807E016E0CA684968206881
:1020A00001F089FD6021206801F0AAFC84F83D5010
:1020B000002084F83C0070BDCA684968206801F0BF
:1020C00069FD40212068EFE7226801461046EBE7F2
:1020D000704770B50446006801694FF00005C943B8
:1020E000890715D4C168C943890711D4E91E016164
:1020F00001202077206880698007204602D0FFF702
:10210000E7FF04E000F0ECF8204600F06EF92577D8
:1021100020680169C943490717D4C168C943490701
:1021200013D46FF0040101610220207720688069D8
:1021300010F4407F204602D0FFF7CAFF04E000F011
:10214000CFF8204600F051F9257720680169C9438E
:10215000090716D4C168C943090712D46FF00801F2
:102160000161042020772068C0698007204602D0E2
:10217000FFF7AEFF04E000F0B3F8204600F035F9B9
:10218000257720680169C943C90617D4C168C943C6
:10219000C90613D46FF01001016108202077206870
:1021A000C06910F4407F204602D0FFF791FF04E0A1
:1021B00000F096F8204600F018F9257720680169AC
:1021C000C943C90708D1C168C943C90704D1891ED9
:1021D0000161204600F00AF920680169C943090637
:1021E00009D4C168C943090605D46FF080010161B3
:1021F0002046FFF731FE20680169C943490609D42A
:10220000C168C943490605D46FF040010161204609
:1022100000F0EDF820680169C94389060BD4C16854
:10222000C943890607D46FF0200101612046BDE84B
:102230007040FFF712BE70BD70B586B00446142121
:102240006846FEF707F8214A216800242048022545
:10225000012691420FD1016841F010010160006830
:10226000694600F0100005904FF4D4400090CDE98D
:102270000154184823E0B1F1804F24D1016841F0A6
:1022800001010160016801F001010591016841F05F
:10229000020101600068694600F0020005904FF4F9
:1022A00000400090CDE90154CDE903460A48FEF70D
:1022B000FBFE08200090CDE9015408486946CDE9AD
:1022C0000346FEF7F1FE06B070BD000000000140BD
:1022D000303802400010024000000240000402407A
:1022E000704770B5044690F83C000D4601280DD0AB
:1022F000012684F83C60022084F83D0042B1042AA3
:1023000018D0082A2AD00C2A4DD139E0022070BDFD
:10231000206801F07DFB2068816941F0080181613E
:102320002068816921F004018161206881692A693E
:10233000114311E0206801F09BFB2068816941F4A2
:10234000006181612068816921F480618161206878
:1023500081692A6941EA0221816124E0206801F053
:10236000BDFB2068C16941F00801C1612068C169F5
:1023700021F00401C1612068C1692A69114311E09B
:10238000206801F0DFFB2068C16941F40061C16190
:102390002068C16921F48061C1612068C1692A692E
:1023A00041EA0221C16184F83D60002084F83C00CC
:1023B00070BD10B5040003D094F83D0010B107E0E3
:1023C000012010BD002084F83C00204600F00CF8ED
:1023D000022084F83D00211D206801F0A3FA0120AD
:1023E00084F83D00002010BD70477047704770476B
:1023F0007047000070B5026804461068D1685369E0
:1024000010F00F0F52D003F0010501F490762E4327
:102410005FD0C20705D0CA0503D5E26B42F00102C6
:10242000E263420705D5DA0703D0E26B42F002020D
:10243000E263820705D5DA0703D0E26B42F00402BB
:10244000E263020707D501F020022A4303D0E26BC2
:1024500042F00802E263E26B002A33D0800604D522
:10246000880602D5204601F0D5FB20684069E16B63
:10247000C0F38010090700D428B3204601F0BCFB4C
:102480002068416949061AD5416921F0400141613E
:10249000606BA0B11B490165606BFEF7E1FD002890
:1024A00010D0606B016DBDE870400847830610D501
:1024B0008B060ED52046BDE8704001F0ABBB204630
:1024C000FFF796FF70BD2046FFF792FF0020E06304
:1024D00070BD030606D50B0604D52046BDE8704046
:1024E00001F078BC4006F3D54806F1D5D168204606
:1024F00021F04001D160202184F8391000F0D3F997
:1025000070BD0000E93B000870B5040004D094F8E9
:102510003900002510B106E0012070BD84F8385064
:10252000204600F023F8242084F839002068C16890
:1025300021F40051C160204601F0B8FB2068016918
:1025400021F4904101612068416921F02A01416133
:102550002068C16841F40051C160E563202084F81F
:10256000390084F83A00002070BD0000F0B587B053
:10257000044614216846FDF76DFE5249504826680E
:102580000023504A103902240325864222D11068C4
:1025900040F400201060106800F4002005900868E6
:1025A00040F0040008600868694600F004000590E7
:1025B000A802CDE900040120CDE90205082004901D
:1025C0004148FEF771FD002211463420FFF766F9FD
:1025D000342026E03D480727864226D13948001D91
:1025E000026842F010020260006800F010000590DE
:1025F000086840F001000860086802AA00F00100C5
:1026000005904FF4C060CDE9000482E8A800694657
:102610002F48FEF749FD002211462520FFF73EF91D
:102620002520FFF72DF907B0F0BDDFF8A8C02A4834
:1026300066451FD1166846F400361660126802F42B
:10264000003205920A6842F008020A60096802AE88
:1026500001F0080105916021CDE9001486E8A80089
:102660006946FEF721FD002211462620FFF716F9E4
:102670002620D6E7DFF864C06645D4D1166846F454
:1026800080261660126802F4802205920A6842F0E1
:1026900008020A60096802AE01F0080105914FF4D2
:1026A0004071CDE9001486E8A8006946FEF7FCFCFD
:1026B000002211462720FFF7F1F82720B1E700009C
:1026C000004C004040380240000802400010014029
:1026D0000000024000440040000C0240004800405E
:1026E00090F83A30202B22D1F9B1F2B190F838307D
:1026F000012B1CD081628285C2850021C163222208
:1027000080F83A2080F838100168CA6842F4807274
:10271000CA6001684A6942F001024A610068C16802
:1027200041F02001C1600020704701207047022065
:102730007047000038B5044600680025016841680C
:1027400000912049884202D11F48FEF71DFA1F4917
:10275000206888420DD11C481D4B401CC11E0278C8
:1027600048781A54401C48706D2A02D10120087024
:102770004D7018492068884203D11348801C00F02E
:10278000A1FD15492068884203D10F48C01CFEF7FF
:10279000FBF901220C491148FFF7A2FF0A49012267
:1027A000491C0F48FFF79CFF07490122891C0D486F
:1027B000FFF796FFBDE8384003490122C91C0A48CB
:1027C000FFF78EBF001001400200002000440040CF
:1027D000CC02002000480040004C0040E4040020EF
:1027E0002405002064050020A40400202DE9F843FE
:1027F000044690F839001F4616460D46202850D151
:10280000B5B1AEB194F8380001284AD0012084F85F
:1028100038004FF00008C4F83C80212084F83900CB
:10282000FEF724FDA6848146E68484F8388026E0FD
:102830000120BDE8F883E08C401EE084A0684B4690
:10284000B0F5805F4FF000024FF080012046009706
:1028500003D001F0F0FAE8B90DE001F0ECFAC8B9E4
:1028600028882168C0F308004860206908B16D1C01
:1028700005E0AD1C03E0216815F8010B4860E08C11
:102880000028D8D14B46002240212046009701F075
:10289000D2FA08B10320CCE7202084F839000020C8
:1028A000C7E70220C5E77047FEE701684A69D243DF
:1028B00052050FD46FF480624A61002140F8301F46
:1028C000202242738173026942F0040202610173A3
:1028D00001207047002070472DE9F84F044600683A
:1028E00089460B9D01689846174641F48061016056
:1028F0002068016841F48071016000954FF0011B70
:102900000022594620460A9B00F0DEF84FF4007A78
:1029100040B120680068C00501D5C4F840A003207C
:10292000BDE8F88F216809F0FE0008612B462849B0
:1029300020460A9A00F0FCF8F0BB206841698069E3
:1029400000902A4620460A9900F070F940B1206CA8
:1029500004283AD12068016841F40071016034E034
:10296000FEB2B8F1010F09D02168380A08612A4681
:1029700020460A9900F05AF90028E8D1206806613B
:102980002A4620460A9900F051F90028DFD1206834
:10299000016841F48071016000950022594620468B
:1029A0000A9B00F091F80028B3D1216809F0FF00DC
:1029B00040F00100086100E007E02B460449204692
:1029C0000A9A00F0B5F80028AAD00120A8E7000074
:1029D000020001002DE9F843044600680D46DDE9D8
:1029E000089701689846164641F4807101604B468D
:1029F00000224FF001112046009700F065F848B121
:102A000020680068C00502D54FF4007020640320E0
:102A1000BDE8F883216805F0FE0008613B464A46A0
:102A20001549204600F084F888B92068416980691A
:102A300000903A464946204600F0F8F848B1206C2C
:102A4000042804D12068016841F40071016001206C
:102A5000DEE7F5B2B8F1010F09D02168300A08614C
:102A60003A464946204600F0E1F80028E7D12068C0
:102A700005610020CCE700000200010070B5164699
:102A80000D4604460DE02046FFF70FFF08B1012078
:102A900070BD681C05D0FEF7E9FB801BA84207D873
:102AA00035B120684069C0434007ECD4002070BDB8
:102AB000002044F8300F20216173A073216941F098
:102AC000200121612073E2E72DE9F0471E46904680
:102AD0000D460446C1F30747DDF8209008E0701C5E
:102AE00006D0FEF7C3FBA0EB0900B0420FD876B1C9
:102AF0002068012F18D0806925EA00000004000C2E
:102B000014D000214145EAD00020BDE8F087002024
:102B100044F8300F20216173A073216941F0200136
:102B2000216120730120F0E74069E5E70121E9E731
:102B30002DE9F0479A4691460E46044600254FF08F
:102B40002008C1F3074725E020684069C0434005DD
:102B500014D42068016841F40071016021686FF4A9
:102B600080604861256384F83D8084F83E50206C85
:102B700040F00400206484F83C501FE0B9F1FF3FAE
:102B800008D0FEF773FBA0EB0A0149450CD8B9F158
:102B9000000F09D02068012F13D0806926EA0000B9
:102BA0000004000C0BD0CFE744F8305F84F80D80B0
:102BB000A573206940F02000206125730120BDE845
:102BC000F0874069EAE72DE9F041002590460E467E
:102BD0000446202717E04069C043C0060CD454F8CF
:102BE000301B6FF01000486144F810596777A577E3
:102BF000206A2062257717E0FEF738FBA0EB08007B
:102C0000B04208D83EB120684169C9434906E2D4C0
:102C10000020BDE8F08144F8305F6773A573206938
:102C200040F02000206125730120F2E770B51646C0
:102C30000D4604460DE02046FFF737FE08B101209F
:102C400070BD681C05D0FEF711FB801BA84207D899
:102C500035B120684069C0430006ECD4002070BD47
:102C6000002044F8300F20216173A073216941F0E6
:102C7000200121612073E2E7012280210148FEF753
:102C8000EFBA0000001002400149086000207047C0
:102C90006C00002010B5FDF7A0FC9FED081B53EC65
:102CA000112BFDF7A8FB9FED071B53EC112BFDF734
:102CB0009CFBFDF7EAFC00EE100A10BD7B14AE474A
:102CC000E17A943F00000060661271401FB50C4627
:102CD0000A23022203A98DE80E00024607480123B9
:102CE000B4210068FEF78CFB10B1012004B010BDC8
:102CF000BDF80C0020800020F8E700006C000020E8
:102D00001FB500F01F000C4640F020020A230221EC
:102D100003A88DE80B0007480123B4210068FEF7E3
:102D20006FFB10B1012004B010BDBDF80C00208075
:102D30000020F8E76C00002038B5044669460720FB
:102D4000FFF7C4FF08B1012038BDBDF80000FFF750
:102D5000A1FF84ED000A002038BD000010B529490C
:102D60002DED028BB0EE408A18EE100A82B00844B6
:102D70002549884244D269460420FFF7C1FF01A9D2
:102D80000F20FFF7BDFF18EE100AFDF76BFC9FED5B
:102D90001F1B53EC112BFDF72EFB41EC100B01F028
:102DA0008FFA51EC100BFDF744FC81B2BDF8000026
:102DB000814204D1002002B0BDEC028B10BD00EEB8
:102DC000100ABDF80400F8EE400A00EE101AB8EE42
:102DD000400A80EE801A00EE100AB8EE400A21EE9A
:102DE000000ABCEEC00A10EE100A84B2042000F003
:102DF0003FF828B921460F2000F03AF80028DAD031
:102E00000120D8E7333333C23433B301000000006C
:102E1000E0FFEF407FB500F01F000B4640F02004BC
:102E2000B421002001F0DEFF214601F0DBFFD9B222
:102E300001F0D8FF1D0A294601F0D4FF8DF80C30AF
:102E40008DF80D508DF80E000A22032103A88DE89D
:102E50000700064801232246B4210068FEF7CCFB98
:102E6000002800D0012004B070BD00006C000020DC
:102E700038B50C4605460021FFF7CCFF90B90A2073
:102E8000FEF700F921462846FFF7C4FF50B90A2093
:102E9000FEF7F8F869462846FFF732FFBDF8000054
:102EA000A04201D0012038BD002038BD30B587B028
:102EB00014216846FDF7CEF921480024016841F04D
:102EC00010010160016801F010010591016841F0F5
:102ED00080010160016801F080010591016841F005
:102EE00002010160016801F002010591016841F0F1
:102EF00008010160016801F008010591016841F0D5
:102F000001010160016801F001010591016841F0D2
:102F10000401016000680B4D00F0040005900022E0
:102F2000C0212846FEF79CF9C02000900120CDE981
:102F30000104694628460394FEF7B6F807B030BD91
:102F400030380240001002400D4810B50B490160B6
:102F50000C49416000214FF480428160C0E90312B6
:102F600041618161C1610162FEF786F9002803D0E9
:102F7000BDE81040FEF737B810BD00000054004017
:102F80003C030020A08601000D4810B50B490160EC
:102F90000C49416000214FF480428160C0E9031276
:102FA00041618161C1610162FEF766F9002803D0C9
:102FB000BDE81040FEF717B810BD000000580040F3
:102FC00090030020A086010010B596B000240F9455
:102FD00010941194129413941C2168461494FDF7D4
:102FE00039F9202107A8FDF735F935483349016043
:102FF00040F24731C0E901146321C0E90314802184
:10300000C0E90541FEF79CFF08B1FDF7ECFF4FF466
:1030100080500F900FA92A48FEF7EFFF08B1FDF787
:10302000E2FF2748FFF7C5F908B1FDF7DCFF13946D
:1030300013A923481494FEF73BFF08B1FDF7D3FF13
:103040006020CDE9000402940394049405940022C6
:1030500069461B480694FFF744F908B1FDF7C3FF22
:10306000042269461648FFF73CF908B1FDF7BBFF9B
:10307000082269461248FFF734F908B1FDF7B3FF9B
:103080000C2269460E48FFF72CF908B1FDF7ABFF9B
:103090000794089409944FF400500A94CDE90B402A
:1030A00007A907480E94FEF7D9FE08B1FDF79BFF6C
:1030B0000348FFF7C1F816B010BD00000000014042
:1030C000E403002010B58EB00024079408940994FE
:1030D0000A940B941C2168460C94FDF7BBF8234816
:1030E0004FF08041016040F24731C0E9011440F2E5
:1030F000CF71C0E9031480218161FEF721FF08B17F
:10310000FDF771FF4FF48050079007A91748FEF7AD
:1031100074FF08B1FDF767FF1448FFF74AF908B1DB
:10312000FDF761FF0B940BA910480C94FEF7C0FE4D
:1031300008B1FDF758FF6020CDE900040294002299
:1031400069460A480494FFF7CCF808B1FDF74BFF35
:10315000042269460548FFF7C4F808B1FDF743FFAC
:103160000248FFF769F80EB010BD000024040020EB
:1031700010B586B00024184800940194029403947A
:10318000049414490594016042F2CF01C0E901148E
:103190004FF47A71C0E9031480218161FEF7D0FEFB
:1031A00008B1FDF720FF4FF48050009069460A48AF
:1031B000FEF723FF08B1FDF716FF049404A90648A3
:1031C0000594FEF775FE002801D0FDF70CFF06B050
:1031D00010BD0000000C0040640400200C4810B535
:1031E0000A4901604FF416514160002181600C22B0
:1031F000C160C0E904128161C161FFF785F900284F
:1032000003D0BDE81040FDF7EEBE10BD004C0040FD
:10321000A40400200C4810B50A4901604FF4E131C4
:103220004160002181600C22C160C0E9041281610B
:10323000C161FFF769F9002803D0BDE81040FDF730
:10324000D2BE10BD00100140E40400200C4810B5AF
:103250000A4901604FF416514160002181600C223F
:10326000C160C0E904128161C161FFF74DF9002816
:1032700003D0BDE81040FDF7B6BE10BD00440040CD
:10328000240500200C4810B50A4901604FF416517E
:103290004160002181600C22C160C0E9041281619B
:1032A000C161FFF731F9002803D0BDE81040FDF7F8
:1032B0009ABE10BD0048004064050020FEE770473C
:1032C000704770472DE9F04703783748354A0024A6
:1032D00001785354491CC9B201701378572B02D09E
:1032E0000470BDE8F0878146501810F8010C58288A
:1032F000F7D1537802202D4D2D4E2E4F462B1BD04B
:103300004C2B15D04D2B26D0542B3FD1491E686035
:1033100005E0135C06EB000C401C0CF8023C8842F4
:10332000F7DB68602248FCF7B2FF234908702DE004
:1033300022490120086029E0214B491E686006E00F
:1033400012F800C003EB0008401C08F802CC8842C9
:10335000F6DB68601AE0491E686005E0135C07EB65
:10336000000C401C0CF8023C8842F7DB68601148F6
:10337000FCF78DFF13490328086002D0042803D00E
:1033800004E0FDF78BFC01E0FDF7C0FC20466C601B
:1033900030553855641C082CFADB6C6089F8000045
:1033A0009FE70000300300200C0000207000002088
:1033B0004400002054000020240000201C000020B5
:1033C0004C00002008000020F0B59FB00D460746D5
:1033D00026225A490FA8FCF724FF584CE08CADF880
:1033E000620054F8280F1990A088ADF86800E088B2
:1033F000ADF86A005149092230310E461BA8FCF78E
:1034000010FF607C8DF87500A07C8DF876006069F7
:103410001E904BA0CDE90C07302213A90E956846EB
:10342000FCF7FFFE0DF13C0C9CE80F0002F0CAF81F
:10343000262242490EA8FCF7F4FE34F8020CADF83F
:103440005E0020681890A088ADF86400E088ADF8B0
:103450006600092231461AA8FCF7E3FE607C8DF86D
:103460007100A07C8DF8720060691D90FF2538A066
:10347000CDE90C05302212A96846FCF7D2FE0DF109
:10348000380C9CE80F0002F09DF826222B490EA86C
:10349000FCF7C7FE34F8020CADF85E002068189007
:1034A000A088ADF86400E088ADF8660009223146D6
:1034B0001AA8FCF7B6FE607C8DF87100A07C8DF830
:1034C000720060691D9022A0CDE90C05302212A97E
:1034D0006846FCF7A6FE0DF1380C9CE80F0002F0E0
:1034E00071F8262215490EA8FCF79BFE34F8020C51
:1034F000ADF85E0020681890A088ADF86400E08800
:10350000ADF86600092231461AA8FCF78AFE607CF5
:103510008DF87100A07C8DF8720060691D900CA080
:10352000CDE90C05302212A96846FCF77AFE0EACF4
:1035300094E80F0002F046F81FB0F0BD64050020CB
:103540007425642E7478743D2225732200000000D7
:10355000256300002DE9F0410746A0B010EE100AE7
:10356000FDF780F80E4605462622594910A8FCF7BB
:1035700058FE574CE08CADF8660054F8280F1A90AE
:10358000A088ADF86C00E088ADF86E0050490922C3
:10359000303188461CA8FCF744FE607C8DF8790029
:1035A000A07C8DF87A0060691F904AA0CDE90C07D5
:1035B000CDE90E56302214A96846FCF732FE10AD54
:1035C00095E80F0001F0FEFF262241490EA8FCF706
:1035D00028FE34F8020CADF85E0020681890A08830
:1035E000ADF86400E088ADF86600092241461AA8EB
:1035F000FCF717FE607C8DF87100A07C8DF87200DE
:1036000060691D90FF2537A0CDE90C05302212A975
:103610006846FCF706FE0EAE96E80F0001F0D2FFFA
:1036200026222B490EA8FCF7FCFD34F8020CADF85D
:103630005E0020681890A088ADF86400E088ADF8BE
:103640006600092241461AA8FCF7EBFD607C8DF864
:103650007100A07C8DF8720060691D9021A0CDE9F9
:103660000C05302212A96846FCF7DBFD96E80F0036
:1036700001F0A8FF262216490EA8FCF7D2FD34F867
:10368000020CADF85E0020681890A088ADF86400C8
:10369000E088ADF86600092241461AA8FCF7C1FD92
:1036A000607C8DF87100A07C8DF8720060691D90BF
:1036B0000CA0CDE90C05302212A96846FCF7B1FD3B
:1036C00096E80F0001F07EFF20B0BDE8F081000019
:1036D000640500207425642E7478743D22252E31F3
:1036E0006622000025630000F0B59FB00D46074636
:1036F00026225A490FA8FCF794FD584CE08CADF8EF
:10370000620054F8280F1990A088ADF86800E0888E
:10371000ADF86A005149092230310E461BA8FCF76A
:1037200080FD607C8DF87500A07C8DF87600606966
:103730001E904BA0CDE90C07302213A90E956846C8
:10374000FCF76FFD0DF13C0C9CE80F0001F03AFF17
:10375000262242490EA8FCF764FD34F8020CADF8AD
:103760005E0020681890A088ADF86400E088ADF88D
:103770006600092231461AA8FCF753FD607C8DF8DB
:103780007100A07C8DF8720060691D90FF2538A043
:10379000CDE90C05302212A96846FCF742FD0DF177
:1037A000380C9CE80F0001F00DFF26222B490EA8D3
:1037B000FCF737FD34F8020CADF85E002068189075
:1037C000A088ADF86400E088ADF8660009223146B3
:1037D0001AA8FCF726FD607C8DF87100A07C8DF89E
:1037E000720060691D9022A0CDE90C05302212A95B
:1037F0006846FCF716FD0DF1380C9CE80F0001F04F
:10380000E1FE262215490EA8FCF70BFD34F8020C48
:10381000ADF85E0020681890A088ADF86400E088DC
:10382000ADF86600092231461AA8FCF7FAFC607C64
:103830008DF87100A07C8DF8720060691D900CA05D
:10384000CDE90C05302212A96846FCF7EAFC0EAC63
:1038500094E80F0001F0B6FE1FB0F0BD6405002033
:103860007425642E7478743D2225642200000000C3
:1038700025630000FDF7A8BF30B593B0302168463E
:10388000FCF7E8FC14210CA8FCF7E4FC194800251F
:10389000016841F080510160006800F08050119093
:1038A0001548016841F4804101600068022400F479
:1038B0008040119001200090000401908001CDE92A
:1038C000064004200890A820CDE9090407200B90A9
:1038D0006846FEF7FFF80CA90F2081E831004FF48D
:1038E000A0500F90E002109005210CA8FEF708F8F8
:1038F00013B030BD403802400070004005480168F8
:1039000041F47001016003494FF0006080390860A4
:103910007047000088ED00E00148FEF7DABB0000C8
:1039200064040020F0B50268254C264D264E274F32
:10393000274B4FF0804CA04209D0604507D0A842E9
:1039400005D0B04203D0B84201D0984204D122F051
:10395000700E4A6842EA0E02A0421BD0604519D0A0
:10396000A84217D0B04215D0B84213D0984211D017
:10397000184DA8420ED0184DA8420BD0174DA842A2
:1039800008D0174DA84205D0164DA84202D0164DBA
:10399000A84203D122F44075CA682A434D6922F037
:1039A00080022A4302608A68C2620A688262A04278
:1039B00001D0984201D10969016301214161F0BD43
:1039C000000001400004004000080040000C0040DE
:1039D0000004014000400140004401400048014013
:1039E00000180040001C00400020004010B5846812
:1039F00042EA032224F47F440A432243826010BD3A
:103A0000826822F070020A4342F007018160704729
:103A1000F0B5026A22F001020262036A4268846918
:103A2000124E24F073050C682C4323F002058B68BA
:103A30002B430D4DA84201D0B04205D123F0080719
:103A4000CB683B4323F00403A84201D0B04205D128
:103A50004D6922F4407215438A692A4342608461A9
:103A6000496841630362F0BD000001400004014069
:103A7000F0B5026A22F010020262026A43688469A9
:103A80000D6824F4E64444EA05248D6822F02002FF
:103A900042EA05120F4D104EA84201D0B04206D1A5
:103AA000CF6822F0800242EA071222F04002A842C8
:103AB00001D0B04207D14D6923F4406343EA850346
:103AC0008D6943EA850343608461496881630262CA
:103AD000F0BD00000000014000040140F0B5026AA2
:103AE00022F480720262026A4368C46922F400729E
:103AF00024F073050C68124E2C438D6842EA0522AF
:103B00000E4DA84201D0B04206D1CF6822F4006227
:103B100042EA072222F48062A84201D0B04207D1D3
:103B20004D6923F4405343EA05138D6943EA0513B5
:103B30004360C4614968C1630262F0BD0000014096
:103B40000004014030B5026A22F480520262046A25
:103B50004268C3690D6823F4E64343EA05238D6890
:103B600024F4005444EA0534084DA84202D0084D1C
:103B7000A84204D14D6922F4804242EA8512426093
:103B8000C36149680164046230BD00000000014067
:103B90000004014010B5036A046A24F001040462C1
:103BA000846924F0F00444EA021423F00A020A4370
:103BB0008461026210BD10B5036A23F01003036232
:103BC0008369046A23F4704343EA023224F0A003B9
:103BD00043EA01118261016210BD00000148FEF755
:103BE00009BC0000A404002010B5806B0021C18531
:103BF000C184FEF7FDFB10BD0168CA6822F4907213
:103C0000CA6001684A6922F001024A61202180F8F5
:103C10003A10704710B590F83A10222901D00220CE
:103C200010BD8168B1F5805F11D00169002901687C
:103C30001FD0496801F07F03816A4A1C82620B70C1
:103C4000C18D491E0904090CC18518D02BE00269F9
:103C5000816A002A0268526805D0D2B20A80816A5D
:103C6000491C8162ECE7C2F308020A80816A891C60
:103C7000F7E74A68816A4B1C83620A70E0E70168D3
:103C8000CA6822F02002CA600168CA6822F4807201
:103C9000CA6001684A6922F001024A61202180F865
:103CA0003A10FEF747FD002010BD00002DE9F0415D
:103CB000044600680169E26821F440511143016142
:103CC0002169A068E26908436169114308432168DA
:103CD000CA6849F20C639A430243CA60206841698A
:103CE000A26921F4407111434161E06919276425FB
:103CF0003226B0F5004F354A354920684FF00008AC
:103D000006D0884201D0904236D1FDF7A3FE35E0BF
:103D1000884201D0904202D1FDF79CFE01E0FDF700
:103D200089FE61684A18A0FB070148EB0803FCF70D
:103D300047FA0146B0FBF5F00201B1FBF5F06FF078
:103D40001803584301EB800006EBC000B0FBF5F010
:103D500000F0F80002EB4002B1FBF5F0584301EB34
:103D6000800006EBC000B0FBF5F000F00700216812
:103D700010448860BDE8F081FDF75CFE61688B0F40
:103D80008A00A0FB0701FCF71BFA0146B0FBF5F027
:103D90006FF01802504301EB800006EB0010B0FBFF
:103DA000F5F000F0F002B1FBF5F002EB0012B1FB10
:103DB000F5F06FF01803584301EB800006EB00109C
:103DC000B0FBF5F000F00F00D1E700000014014057
:103DD0000010014090F83910212901D002207047CD
:103DE0008168B1F5805F016A0BD04A1C02620268EB
:103DF00009785160C18C491E0904090CC1840ED098
:103E000017E009880268C1F30801516001690029BF
:103E1000016A02D0491C0162ECE7891CFBE70168DA
:103E2000CA6822F08002CA600068C16841F040019F
:103E3000C160002070472DE9F041984617460E46B4
:103E40000446069D1DE0681C1BD02DB1FDF70EFA3F
:103E5000A0EB0800A84214D92068C16821F4D071F1
:103E6000C1602068416921F001014161202084F88E
:103E7000390084F83A00002084F838000320BDE8B7
:103E8000F0812068006836EA000004D00020B842C3
:103E9000D9D00020F3E70120F9E700000148FEF740
:103EA000A9BA0000E40400200148FEF7A3BA00000C
:103EB000240500200148FEF79DBA0000640500209B
:103EC000FEE700000FB4054B10B503A9044A0298A1
:103ED00000F0E6FB10BC5DF814FB0000034E000888
:103EE000A80200207CB5044600201D461646002985
:103EF0000BD0491ECDE90041044B6A4629463046A5
:103F000000F0CEFB009A002111707CBDCF4D00085F
:103F100003B401984100009850EAC12018BF042062
:103F20004A0D18BF40F0010040F2FF72B2EB515F42
:103F300008BF40F00200012808BF052002B070470A
:103F40000907090E002804DB00F1E02080F80014C6
:103F5000704700F00F0000F1E02080F8141D70475A
:103F600000487047B402002070B52DED020B2DED16
:103F70000A8B82B00D98C40F20F00045AE488542F0
:103F800048D3AE48854219D30C99C5F313000843B2
:103F900009D09DED0C0B02B0BDEC0A8B02B0BDE860
:103FA000704000F079BA002C14BF9FEDA50B9DED79
:103FB0000C0B02B0BDEC0A8B02B070BD9FEDA20BE2
:103FC00053EC102B9DED0C0B51EC100BFCF700FD8E
:103FD0000AD2022000F09CFA02B0BDEC0A8B02B0BB
:103FE000BDE8704000F064BA9FED990B53EC102BC4
:103FF0009DED0C0B51EC100BFCF7D2FC0AD2022009
:1040000000F086FA02B0BDEC0A8B02B0BDE8704049
:1040100000F05EBA90489FED92BBA8425CD29248F5
:10402000854219D29148784400EBC40090ED000B12
:1040300053EC102B9DED0C0B51EC100BFCF7D5F94C
:1040400041EC1A0B8A48784400EBC40090ED009BC9
:10405000C4F10100041B36E09FED870B53EC102BDD
:104060009DED0C0B51EC100BFCF7C5F941EC100B5E
:104070008348784400EBC40090ED001B51EC100B1A
:1040800053EC112BFCF710F9FCF7B4FA0446FCF7DB
:1040900093FA41EC180B9FED7C0B53EC102BFCF7C3
:1040A000AAF99DED0C1B53EC112BFCF7A1F941EC87
:1040B0001A0B9FED770B51EC180B53EC102BFCF700
:1040C0009AF941EC190B51EC1A0B53EC192BFCF734
:1040D0008CF9CDE90C011BE06F48854217D29FEDAA
:1040E000700B53EC102B9DED0C0B51EC100BFCF7EF
:1040F000DBF853EC1B2BFCF76BFC08D29DED0C0B93
:1041000053EC1B2B51EC100BFCF7CEF86EE00024A7
:104110009DED0C0B53EC102B51EC100BFCF76BF9D5
:1041200041EC180B60480521B0EE480AF0EE680A31
:10413000784400F035F953EC182B51EC100BFCF7D8
:104140005AF99DED0C1B53EC112BFCF751F941EC86
:10415000180B9FED570B5CB353EC182B51EC100B65
:10416000FCF743F99DED0C0B41EC1C0B53EC182BA9
:1041700051EC100BFCF73FF953EC1C2BFCF7ADF99D
:1041800053EC192BFCF734F953EC1A2BFCF72DF9EF
:1041900053EC1B2BFCF72CF9CDE900016FF47F7079
:1041A000844226DB01EB045001909DED000B00E7FB
:1041B00053EC102B51EC180BFCF717F99DED0C0B81
:1041C00041EC190B53EC182B51EC100BFCF713F9C5
:1041D00053EC192BFCF781F99DED0C1B53EC112BC3
:1041E000FCF703F953EC1B2BFCF702F941EC100B25
:1041F000DFE608464FF07A5101EB04519FED2E0B9C
:10420000084453EC102B01909DED000B51EC100B6A
:10421000FCF7F1F80D4645EC100B044651EC100B81
:10422000FFF776FE042808BF00F052F945EC104B6A
:10423000BFE6000000000000422E86400000F07F34
:104240000000000000000000EF39FAFE422E864018
:1042500051302DD5104987C0422ED63F00000000B6
:10426000000000000000F03FB2A2F03FFE15000089
:10427000EE15000000000000FE822B654715F73F99
:10428000A2150000000000000000E0FE422EE63F04
:10429000763C7935EF39EA3D0000303E0000000001
:1042A0009C7500883CE4377E141500000000000077
:1042B000000000000000004000000000000070014D
:1042C00010B52DED020B2DED088B84B09DED0C0B80
:1042D00051EC100BFCF708FB41EC180B9DED0C0B9F
:1042E00053EC182B51EC100BFCF77FF841EC190B39
:1042F0000D989FED290B10F0004F53EC102B51EC53
:10430000190B9FED21AB9FED22BB0ED0FCF748FBB4
:104310000ED953EC1B2B51EC190BFCF759FB1CD29B
:1043200014E000BF41EC180B17E0FCF739FB06D294
:1043300053EC1A2B51EC180BFCF757F8F2E753EC3F
:104340001B2B51EC190BFCF743FB06D853EC1A2B33
:1043500051EC180BFBF7A8FFE4E78DED028B9DED08
:104360000C0B18EE901A10EE900A8DED000B61F315
:104370001E0003909DED020B04B0BDEC088B02B053
:1043800010BD000000000000000000000000F03F31
:10439000000000000000E03F000000000000E0BF5F
:1043A00070B504462DED028B4D1E00EBC500B0EE3E
:1043B000408AF0EE608A90ED000B35F0060017D0D1
:1043C00053EC182B51EC100BFCF715F841EC100BCB
:1043D0006D1E04EBC50090ED001B51EC100B53EC6F
:1043E000112BFBF761FF41EC100B35F00600E7D114
:1043F000022D36D0042D1CD0062D1CBFBDEC028B27
:1044000070BD53EC182B51EC100BFBF7F4FF94ED3F
:104410000A1B53EC112BFBF747FF53EC182BFBF750
:10442000EAFF94ED081B53EC112BFBF73DFF41EC29
:10443000100B53EC182B51EC100BFBF7DCFF94ED39
:10444000061B53EC112BFBF72FFF53EC182BFBF73C
:10445000D2FF94ED040B53EC102BFBF725FF41EC3E
:10446000100B53EC182B51EC100BFBF7C4FF94ED21
:10447000021B53EC112BFBF717FF53EC182BFBF728
:10448000BAFF94ED001B53EC112BFBF70DFFBDECB5
:10449000028B41EC100B70BD10B553EC102B51EC9E
:1044A000100BFBF701FF41EC100B10BD00000000EA
:1044B0009FED050B10B553EC102B51EC100BFBF7D7
:1044C0009AFF41EC100B10BD0000000000000070CE
:1044D0009FED050B10B553EC102B51EC100BFBF7B7
:1044E0008AFF41EC100B10BD00000000000000101E
:1044F00002E008C8121F08C1002AFAD170477047AD
:10450000002001E001C1121F002AFBD1704700000A
:104510000149086070470000B40200202DE9FF5FE8
:1045200082B00021DDE90430020DDDF840B0034324
:1045300018D044F61050A2F2FF32424315141198DD
:1045400001281FD0A5EB0B00401C5FEA000A4FF0CA
:1045500000064E4FDFF83891B046504615D5CAF1E7
:10456000000413E0119801244AA3012801D16FEA45
:104570000B010298119AC0E90031C0E9024206B06D
:10458000BDE8F09FCBF10000DFE704460021404A80
:10459000491842EB0450CDE9001012E0E00707D0C3
:1045A00032463B4640464946FBF725FF8046894652
:1045B00032463B4610461946FBF71DFF06460F469E
:1045C0006410002CEAD1DDE90401DDE90023BAF131
:1045D000000F06DAFBF70FFF42464B46FBF70BFFD7
:1045E00005E0FBF77AFF42464B46FBF776FF0446B1
:1045F0000E460022284BFCF7EBF903D84FF0FF30B2
:10460000014607E00022254B20463146FBF74CFED1
:10461000FCF7AEF9102409E0002C0ADB0A22002383
:10462000FBF7CEFD039B30321A55641E50EA01029F
:10463000F2D1641C039AC4F111031444119A012AA3
:1046400003D0012208430DD10AE0084304D0002022
:104650004FF0110B119072E7A3EB0B056D1E0DE0EF
:104660005B4504DD4FF0000205F1010504E003DACB
:104670004FF00002A5F10105002AECD00298119933
:10468000C0E90231C0E9004579E7000000001440AC
:104690000000F03F300000000000F0430000E03F69
:1046A0002DE9FF4F95B09B468946064600250FE24F
:1046B000252877D100242746F84A0121059400E0F7
:1046C000044316F8013F203B01FA03F01042F7D1F2
:1046D00030782A2811D06FF02F033078A0F1300203
:1046E000092A16D8059A44F0020402EB820203EB71
:1046F00042021044761C0590EFE759F8042B05920E
:10470000002A03DA504244F40054059044F00204B5
:10471000761C30782E2816D116F8010F44F00404C8
:104720002A280DD06FF02F023078A0F13003092B2A
:1047300009D807EB870302EB4303C718761CF3E79E
:1047400059F8047B761C30786C280FD006DC4C2896
:1047500017D068280DD06A2814D104E0742810D02E
:104760007A280FD10DE044F400140AE044F48014D8
:1047700001E044F440147278824202D104F58014BE
:10478000761C761C307866280BD013DC582877D03E
:1047900009DC002875D04528F6D04628F4D04728F3
:1047A0001AD19DE118E0632835D0642879D06528B6
:1047B00012D195E1702873D008DC6728F1D0692800
:1047C0006FD06E280DD06F2806D1B5E073282CD09D
:1047D000752875D0782874D05A46179990476D1C63
:1047E00075E1C4F30250022809D003280DD0D9F88E
:1047F000001004280DD00D6009F1040967E1D9F813
:104800000010EA17C1E90052F6E7D9F800100D8050
:10481000F2E70D70F0E719F8041B8DF80010002086
:104820008DF80100EA46012003E059F804AB4FF08F
:10483000FF3061074FF0000102D40DE008F10101E3
:104840008846B9420FDA8045F8DB1AF808100029CB
:10485000F4D108E008F1010188468142FADB1AF838
:1048600008100029F6D105985B46A0EB0807214601
:104870003846179A00F094FA284400EB080507E040
:104880004DE029E10DE01AF8010B5A4617999047BF
:10489000B8F10108F7D25B4621463846179A13E172
:1048A00042E00A220092C4F302524FF0000A022AA8
:1048B00008D059F804CB032A4FEAEC710AD00DE076
:1048C00029E02AE009F1070121F00702F2E802C11C
:1048D000914609E00FFA8CFC4FEAEC71042A03D1EF
:1048E0004FFA8CFC4FEAEC71002907DA0A460021E6
:1048F000DCF1000C61EB02012D2202E0220504D55F
:104900002B228DF80420012203E0E20701D02022AF
:10491000F7E7904659E00A2102E010220DE010214D
:104920004FF0000A00910BE010224FF0000A44F013
:1049300004040827009203E008224FF0000A0092C6
:10494000C4F30252022A05D059F804CB0021032AED
:1049500008D009E009F1070121F00702F2E802C1DD
:10496000914605E01FFA8CFC042A01D10CF0FF0CE3
:104970004FF00008220728D5702806D0009B83F04E
:10498000100353EA0A0305D00EE040228DF80420FC
:10499000012208E05CEA010206D030228DF80420F2
:1049A0008DF8050002229046009B83F0080353EA2D
:1049B0000A030AD15CEA010201D1620705D530225F
:1049C0008DF804204FF001087F1E582804D034A031
:1049D00003900EA802900DE036A0F9E7534660461A
:1049E000009AFBF7EDFB84460398825C0298401E18
:1049F000029002705CEA0100F0D1029806A9081A40
:104A000000F1200A600702D524F4803400E0012779
:104A1000574502DDA7EB0A0000E0002000EB0A0189
:104A2000009005984144401A0590E00306D45B4687
:104A30002146179A059800F0B3F90544002706E0CF
:104A400001A85A46C05D179990476D1C7F1C4745C9
:104A5000F6DBE0030CD55B462146179A059800F07B
:104A60009FF9054404E030205A46179990476D1C81
:104A70000099481E00900029F5DC08E00298029990
:104A80005A460078491C0291179990476D1CBAF15B
:104A90000001AAF1010AF1DC65E10000092801002A
:104AA00030313233343536373839616263646566A4
:104AB0000000000030313233343536373839414266
:104AC000434445460000000000F058F90544761CB8
:104AD000307800287FF4ECAD19B02846BDE8F08F9F
:104AE000620700D4062709F1070222F0070CFCE850
:104AF0000223E14603F000485FEA080C02D00FF2FF
:104B0000702C0DE05FEA045C02D50FF2682C07E020
:104B10005FEAC47C02D00FF2602C01E0AFF2700CAF
:104B20004FF0FF3823F00043CDF850C065280CD07B
:104B300006DC452809D046281DD047283DD13DE058
:104B4000662818D067287ED138E00021112F01DBBC
:104B5000112000E0781CCDE9000106A90EA8FFF79E
:104B6000DDFCDDE90F010E9A03910021009207F1AF
:104B7000010A04914DE04FF000400097CDE901108B
:104B800006A90EA8FFF7CAFCDDE90F0203920E9BEF
:104B900011990022DDF80CA00093049211B9791C40
:104BA00000EB010AB7EB0A0004D4C0F1FF3007F1B3
:104BB000010A0490AAEB0700019044E0012F00DAFB
:104BC00001270021112F01DD112000E03846CDE939
:104BD000000106A90EA8FFF7A1FCDDE90F010E9A5E
:104BE0000391002104910092BA4621070CD4039945
:104BF000514500DA8A46BAF1010F05DD009AAAF1A3
:104C00000101515C302908D0B84202DA10F1040FDA
:104C100006DA0121CDE9011015E0AAF10101E9E769
:104C2000002805DC049901440491AAEB000102E08C
:104C3000411C514500DD8A460499401A401C0190F0
:104C40004FF000400290200704D40198504501DB4A
:104C5000CDF8048000208DF84F0002980DF14F0729
:104C6000B0F1004F25D02B200E9002984FF0020893
:104C700000280CDA404202902D200E9007E00A2115
:104C80000298FBF71EFD3031029007F8011DB8F1C4
:104C90000001A8F10108F2DC02980028EFD1791E8A
:104CA0000E980870307800F0200040F0450007F8BA
:104CB000020D12A8C01B00F107081498007800B17B
:104CC000012000EB0A01019801EBE07105984144D5
:104CD000401A401E0590E00306D45B462146179A11
:104CE000059800F05DF805441498007818B15A460C
:104CF000179990476D1CE00324D55B462146179A0F
:104D0000059800F04DF805441CE00498002807DBE6
:104D1000DDE90301884203DD0098405C179901E05A
:104D2000179930205A469047049805F10105401C18
:104D300004900198401E019004D12E205A461799E4
:104D400090476D1CBAF10001AAF1010ADDDC05E013
:104D500017F8010B5A46179990476D1CB8F10001DE
:104D6000A8F10108F4DC5B462146179A0598ABE6EA
:104D70002D0000002B000000200000002DE9F04174
:104D8000044600251E461746880404D405E039462B
:104D90002020B0476D1C641EF9D52846BDE8F0817F
:104DA0002DE9F041044600251E469046C80301D572
:104DB000302700E02027880404D505E04146384626
:104DC000B0476D1C641EF9D52846BDE8F0814A68DD
:104DD000002A06D00A68531C0B6010704868401EF9
:104DE000486070474840002102064FEA40604FEAA1
:104DF000106001D580F00700491CC9B20829F3D31F
:104E0000704738B504468DF8000069460320ABBEF4
:104E1000204638BD10EE100A10B5B0F1844F10EEE8
:104E2000100A06DCFBF71EFC41EC100B9FED1F1B6C
:104E300027E06FF084410844B0F5402F10EE100ACF
:104E40000CD2FBF70FFC9FED1B1B53EC112BFBF758
:104E5000D2FA41EC100B9FED191B12E019490844DE
:104E60001949884210EE100A16D2FBF7FBFB9FEDA2
:104E7000171B53EC112BFBF7BEFA41EC100B9FED07
:104E8000151B51EC100B53EC112BFBF70DFAFBF734
:104E9000FCFB00EE900A06E01049884203DBF7EEC7
:104EA000080A70EE200AB0EE600A10BD33333333C7
:104EB00033330340333333333333EB3FAAF1D24D33
:104EC00062101D40FFFFF3BD99990500000000002E
:104ED0000000E83FE17A14AE47A125409A991142BB
:104EE000FCF77AFCFEF7C8FCFDF7E0FFFEF76CF874
:104EF000FEF790F9FEF728F8FEF7E4F8FEF744F81D
:104F0000FEF736F9FEF7A2F9FEF7BCF9FEF766F9EF
:104F100001221E491E48FDF7E3FB1C490122491CE2
:104F20001C48FDF7DDFB19490122891C1A48FDF7D1
:104F3000D7FB16490122C91C1848FDF7D1FB1848B8
:104F4000FDF74AF800F0D4F91648FDF79DFE9FEDF5
:104F5000160AFDF703FF0D4CA41EA06801280BD014
:104F600002280CD003280DD00428F6D1FCF718F83D
:104F70003220FCF787F8F0E7FBF742FFEDE7FBF79D
:104F80008DFFEAE7FBF7C8FFF2E700000200002010
:104F9000E40400202405002064050020A40400206F
:104FA000640400203C030020F6287C3FF0B50B3061
:104FB000154D20F007010024144A0FE003688B42CE
:104FC0000BD38B4205D95E1A43184768C3E90067C3
:104FD00000E04368136002C004E0021D106800286E
:104FE000ECD12046002802D1286808B10020F0BD8D
:104FF000064A07481060074A121A22F00702C0E961
:10500000002401202860D7E7B0020020AC02002075
:10501000BC050020B80B00202DE9F35F66482DED9C
:10502000048B0146426809681368022B0DD002EB1D
:10503000810252F8042C012A07D060A0FEF742FF3B
:105040000120BDEC048BBDE8FC9F00240029F8DDA5
:10505000DFED608A4FF0100B4FF0080A002506467E
:1050600029E0002CFAD000259FE0049850F8250094
:10507000FBF7F8FA41EC100B0121284600F0ACF8E0
:10508000B06850F8240000EB451080ED000BB068CC
:1050900050F824100BEB4510084490ED001B012044
:1050A00000F068F9B06850F824100AEB4510084485
:1050B0006D1C80ED000B706850F82400A842D4DC11
:1050C000B046641CD8F8001040468C42C9DBB8E7F3
:1050D00000EB8400B0EE688A002650F8047CD8F813
:1050E000089025E009EB8400182150F8040C01EB2E
:1050F0004611415801EBC50191ED000B0AEB461139
:10510000084453EC102B90ED001B51EC110BFBF7F6
:1051100072F941EC190B18EE100AFBF7A3FA53ECE5
:10512000192BFBF7C1F8FBF7B0FA08EE100A761C52
:10513000B742D7DC18EE100AFBF794FA41EC100BDB
:1051400059F82400464600EB451080ED000BD8F8D6
:105150000000401E844213DAB06850F824100BEBB4
:105160004510084490ED001B012000F003F9B068E1
:1051700050F824100AEB4510084480ED000B13E0B2
:10518000D8F808000AEB451150F824000844012122
:1051900080ED000B284600F067F851EC100BFBF790
:1051A00074FA059941F825006D1CD8F8040050F8F0
:1051B0002420AA4285DD8BE778000020CAE4C8EBF2
:1051C000BBF2CAE4B3F6B5C4CAFDC1BFB2BBD5FDDC
:1051D000C8B70A000000000010B50C461D492DEDAF
:1051E000048B01EBC000B0EE409A90ED010A90ED07
:1051F000001AF0EE609A11EE100A30EE418AFBF7C9
:1052000031FA53EC192BFBF7F3F841EC190B18EEBC
:10521000100AFBF727FA41EC100B51EC190B53EC79
:10522000102BFBF75AF941EC100B012C0FD151EC6C
:10523000100B9FED091B53EC112BFBF7DCF89FEDD6
:10524000081B53EC112BFBF7D0F841EC100BBDEC15
:10525000048B10BDA40500200000000000000040E9
:10526000000000000000F03F10B51C4A01292DEDA0
:10527000048B02EBC000B0EE408A90ED010A90ED85
:10528000009AF0EE608A70EE499A0FD151EC180B3B
:105290009FED130B53EC102BFBF706F89FED121B41
:1052A00053EC112BFBF7A7F841EC180B19EE900A01
:1052B000FBF7D8F953EC182BFBF79DF841EC180BD2
:1052C00019EE100AFBF7CEF953EC182BFAF7ECFFA6
:1052D000BDEC048B41EC100B10BD000084000020DD
:1052E000000000000000F03F000000000000E03F70
:1052F00010B59EB000F0A2F800282DD02622174944
:105300000DA8FAF78EFF154CE08CADF85A00A06A94
:105310001790A08DADF86000E08DADF86200092215
:1053200004F1300119A8FAF77CFF94F839008DF8E0
:105330006D0094F83A008DF86E00E06B1C9008A0A8
:105340000C90302211A96846FAF76BFF0DAC94E877
:105350000F0000F037F902201EB010BDE404002059
:10536000C9F1BEADCDF8C2E7BDA8C1A2B4EDCEF380
:105370000A00000010B504462DED048B53EC112BF0
:1053800051EC100B9FED258BFBF72FF841EC100B28
:105390009FED249B14B1012C17D038E051EC100B79
:1053A00081F0004141EC100BFEF7DEFD53EC192BB0
:1053B00051EC100BFAF778FF41EC100B51EC190B84
:1053C00053EC102BFBF789F81FE09FED181B51ECF5
:1053D000100B53EC112BFBF70EF841EC100BFEF702
:1053E000C3FD53EC192B51EC100BFAF75DFF41ECA8
:1053F000100B53EC102B9FED0F0B51EC100BFBF728
:105400006CF853EC192BFAF7F0FF41EC180BB0EEE7
:10541000480AF0EE680ABDEC048B10BD00000000E5
:1054200000000000000000000000F03F000000004D
:10543000000000C000000000000000402DE9F0471F
:10544000DFF87891002599ED000B51EC100BFBF77C
:10545000D1F8A9F118084746C8F8000001248000D7
:10546000FFF7A4FD786006463F680BE009EBC40037
:1054700090ED000B51EC100BFBF7BCF846F8250043
:10548000641C6D1CBD42F1DBD8F80000464680006C
:10549000FFF78CFD0025B0600BE0D8F8040046460D
:1054A00050F825004001FFF781FDB16841F8250063
:1054B0006D1C3068B0468542EFDBDFF804A10025A3
:1054C0004FEA090606EBC40090ED000B51EC100BFF
:1054D000FBF7DBF80AEBC507641C386006EBC40079
:1054E00090ED000B51EC100BFBF7CFF8641C6D1C1A
:1054F0007860022DE6DB06EBC400B14690ED000BB0
:1055000051EC100BFBF7C1F82C4D641C0C3D2860CE
:1055100006EBC40090ED000B51EC100BFBF7B5F857
:10552000686000254FF0180A4646641C3FE00027DB
:1055300037E03168491E8D4232D000EB850040686B
:10554000C000FFF733FDB1680AEB471251F8251090
:105550008850D6E9013C002049460DE001EBC40823
:1055600098ED000B5CF8258058F8028008EBC00825
:10557000401C88ED000B641C03EB8508D8F8048000
:105580008045EBDC09EBC400102190ED000BB06806
:1055900001EB4711641C50F82500084480ED000B16
:1055A0007F1C706850F82510B942C2DC6D1C306851
:1055B0008542BCDB0020BDE8F087000090000020A1
:1055C000A40500200FB4642100B599B06846FAF72D
:1055D00041FE2BAB642168462A9AFEF783FC82B217
:1055E0004FF0FF3369461AA8FDF700F964216846B9
:1055F000FAF730FE19B05DF814FB0000000000005F
:10560000000001020304060708090000000001026F
:105610000304000000000000000000000000E03F64
:10562000000000000000E0BF0000E0FE422EE63F68
:105630000000E0FE422EE6BF763C7935EF39EA3DC8
:10564000763C7935EF39EABD3E5555555555C53F40
:1056500093BDBE166CC166BF2CDE25AF6A56113FE6
:10566000F16BD2C541BDBBBED0A4BE726937663EE8
:105670000040404040404040404041414141414065
:10568000404040404040404040404040404040401A
:1056900040050202020202020202020202020202A9
:1056A00002202020202020202020200202020202AE
:1056B0000202909090909090101010101010101006
:1056C0001010101010101010101010100202020212
:1056D0000202888888888888080808080808080856
:1056E0000808080808080808080808080202020252
:1056F0004000000071560008185700080000002004
:10570000B8020000E60A000818590008B802002094
:105710000029000000450008015C32018210032BC3
:1057200024F473104059085A20085A0808380BF01E
:105730003F05B0F99F99993D40084B194808191049
:1057400051580AA07E40FB4F066066E61000FF003D
:105750008047406DD223FC4113C33FC50191D14323
:1057600065D8BF8C6E9427D64AC23FAD470AFA452A
:1057700068E3BF6ED3C87C7A6BE8BF8BE9192DCD87
:105780000EF63FEF9768F3ACA2E0BF514F9B489BEA
:1057900070D83FA578E8FD772B80BFF3FA9B692589
:1057A00061D6BFECD2AF42047BC3BFC9103256BC36
:1057B0000DD9BF5C467FA29153A0BF1A664F9F7060
:1057C00038D6BFEFF98A0322A39FBFEED522FD5141
:1057D0006FD2BF39EC218E33D5CFBF2A999469D1CE
:1057E0006EE43FC6F2B6EB08D4D4BF8DDA16C860BB
:1057F00063E23F54FFFF8338A4DEBF96389787F1FA
:10580000FFE5BFB3BACD028AA4D5BF9C25B7DC4F54
:105810007C833FCEE737A7EDFAD1BF779CE43F8B7F
:1058200082DCBF11F28B5C8132BF3F0CDE3E48A2AE
:1058300059D6BFD76C61ED5A88DFBF479879DDE84C
:1058400084B53F8901D8A1165AD9BFEB4A1500C6C5
:1058500010D6D784EABFD2EF4E805948DF3FD950E7
:105860005A4D117FE33FD1D0BB88211FEEBF3B943F
:1058700078AB7418E6BF1F820DFC666ABF3FC23D5D
:10588000A62005F0C7BF6D5C9C841474E7BFE922B5
:1058900009EB9401DC3F1126BD56DF8CDDBF56813C
:1058A0005A0C1EA6CFBF5DBFA2533E81E1BFBDA86B
:1058B00040DABD24D2BF057C2BD0F681CEBF48E7AD
:1058C00036C050B0B3BF9DD0F3C02A4BDE3F545416
:1058D0003F67B909D0BF5C618FC33F70C83FEB8D94
:1058E0007B6FE341E63FAFAE8E0C073CFE3F73C8D3
:1058F000380C077ED0BF3CA2849145D7F13FFE20F3
:1059000058763DA8CEBF30C933F5DBD3E3BF443969
:085910002C68B59BDB3F000091
:040000050800018965
:00000001FF
